{
  "contractName": "LensHub",
  "abi": [
    {
      "inputs": [
        {
          "internalType": "uint256",
          "name": "profileId",
          "type": "uint256"
        }
      ],
      "name": "getFollowNFT",
      "outputs": [
        {
          "internalType": "address",
          "name": "",
          "type": "address"
        }
      ],
      "stateMutability": "view",
      "type": "function"
    },
    {
      "inputs": [
        {
          "internalType": "address",
          "name": "wallet",
          "type": "address"
        }
      ],
      "name": "defaultProfile",
      "outputs": [
        {
          "internalType": "uint256",
          "name": "",
          "type": "uint256"
        }
      ],
      "stateMutability": "view",
      "type": "function"
    },
    {
      "inputs": [
        {
          "internalType": "string",
          "name": "handle",
          "type": "string"
        }
      ],
      "name": "getProfileIdByHandle",
      "outputs": [
        {
          "internalType": "uint256",
          "name": "",
          "type": "uint256"
        }
      ],
      "stateMutability": "view",
      "type": "function"
    },
    {
      "inputs": [
        {
          "internalType": "uint256",
          "name": "profileId",
          "type": "uint256"
        }
      ],
      "name": "getHandle",
      "outputs": [
        {
          "internalType": "string",
          "name": "",
          "type": "string"
        }
      ],
      "stateMutability": "view",
      "type": "function"
    },
    {
      "inputs": [
        {
          "internalType": "uint256[]",
          "name": "profileIds",
          "type": "uint256[]"
        },
        {
          "internalType": "bytes[]",
          "name": "datas",
          "type": "bytes[]"
        }
      ],
      "name": "follow",
      "outputs": [],
      "stateMutability": "nonpayable",
      "type": "function"
    }
  ],
  "bytecode": "0x608060405234801561001057600080fd5b50610580806100206000396000f3fe608060405234801561001057600080fd5b50600436106100575760003560e01c806320fa728a1461005c57806392254a621461008c578063a9ec6563146100bc578063ec81d194146100ec578063fb78ae6c1461011c575b600080fd5b610076600480360381019061007191906101dc565b610138565b6040516100839190610242565b60405180910390f35b6100a660048036038101906100a191906102bb565b610140565b6040516100b39190610242565b60405180910390f35b6100d660048036038101906100d19190610314565b610147565b6040516100e39190610350565b60405180910390f35b61010660048036038101906101019190610314565b61014e565b60405161011391906103fb565b60405180910390f35b610136600480360381019061013191906104c9565b610167565b005b600092915050565b6000919050565b6000919050565b6060604051806020016040528060008152509050919050565b50505050565b600080fd5b600080fd5b600080fd5b600080fd5b600080fd5b60008083601f84011261019c5761019b610177565b5b8235905067ffffffffffffffff8111156101b9576101b861017c565b5b6020830191508360018202830111156101d5576101d4610181565b5b9250929050565b600080602083850312156101f3576101f261016d565b5b600083013567ffffffffffffffff81111561021157610210610172565b5b61021d85828601610186565b92509250509250929050565b6000819050919050565b61023c81610229565b82525050565b60006020820190506102576000830184610233565b92915050565b600073ffffffffffffffffffffffffffffffffffffffff82169050919050565b60006102888261025d565b9050919050565b6102988161027d565b81146102a357600080fd5b50565b6000813590506102b58161028f565b92915050565b6000602082840312156102d1576102d061016d565b5b60006102df848285016102a6565b91505092915050565b6102f181610229565b81146102fc57600080fd5b50565b60008135905061030e816102e8565b92915050565b60006020828403121561032a5761032961016d565b5b6000610338848285016102ff565b91505092915050565b61034a8161027d565b82525050565b60006020820190506103656000830184610341565b92915050565b600081519050919050565b600082825260208201905092915050565b60005b838110156103a557808201518184015260208101905061038a565b60008484015250505050565b6000601f19601f8301169050919050565b60006103cd8261036b565b6103d78185610376565b93506103e7818560208601610387565b6103f0816103b1565b840191505092915050565b6000602082019050818103600083015261041581846103c2565b905092915050565b60008083601f84011261043357610432610177565b5b8235905067ffffffffffffffff8111156104505761044f61017c565b5b60208301915083602082028301111561046c5761046b610181565b5b9250929050565b60008083601f84011261048957610488610177565b5b8235905067ffffffffffffffff8111156104a6576104a561017c565b5b6020830191508360208202830111156104c2576104c1610181565b5b9250929050565b600080600080604085870312156104e3576104e261016d565b5b600085013567ffffffffffffffff81111561050157610500610172565b5b61050d8782880161041d565b9450945050602085013567ffffffffffffffff8111156105305761052f610172565b5b61053c87828801610473565b92509250509295919450925056fea26469706673582212209a410a465ac330dcc8b6f74afcdebd100e968b999c00d734c88970e10d5f522764736f6c63430008110033",
  "immutableReferences": {},
  "source": "// SPDX-License-Identifier: MIT\npragma solidity ^0.8.0;\npragma experimental ABIEncoderV2;\n\n//import \"@chainlink/contracts/src/v0.6/ChainlinkClient.sol\";\nimport 'hardhat/console.sol';\nimport '@openzeppelin/contracts/token/ERC721/extensions/IERC721Enumerable.sol';\nimport '@chainlink/contracts/src/v0.8/VRFConsumerBase.sol';\n\ncontract LensHub {\n    function getFollowNFT(uint256 profileId) external view returns (address) {\n        return 0x0000000000000000000000000000000000000000;\n    }\n\n    function defaultProfile(address wallet) external view returns (uint256) {\n        return 0;\n    }\n\n    function getProfileIdByHandle(string calldata handle) external view returns (uint256) {\n        return 0;\n    }\n\n    function getHandle(uint256 profileId) external view returns (string memory) {\n        return '';\n    }\n\n    function follow(uint256[] calldata profileIds, bytes[] calldata datas) external {}\n}\n\ncontract PrizeDrawModule is VRFConsumerBase {\n    event SendPrize(address indexed _from, address indexed _to, uint256 _value);\n\n    LensHub _lensHub;\n    mapping(uint256 => Giveaway[]) _giveaways;\n\n    bytes32 internal keyHash;\n    uint256 internal fee;\n\n    uint256 internal profileIDOfOngoingRaffle;\n    uint256 internal prizeOfOngoingRaffle;\n    address internal donorOfOngoingRaffle;\n\n    struct Giveaway {\n        address donor;\n        uint256 profileID;\n        uint256 amount;\n        address winner;\n    }\n\n    constructor()\n        VRFConsumerBase(\n            0x8C7382F9D8f56b33781fE506E897a4F1e2d17255, // VRF Coordinator\n            0x326C977E6efc84E512bB9C30f76E30c160eD06FB // LINK Token\n        )\n    {\n        address watch_addr = 0xd7B3481De00995046C7850bCe9a5196B7605c367;\n        // lens hub proxy on mumbai testnet\n        _lensHub = LensHub(watch_addr);\n        keyHash = 0x6e75b569a01ef56d18cab6a8e71e6600d6ce853834d4a5748b720d06f878b3a4;\n        fee = 0.0001 * 10**18;\n        // 0.0001 LINK\n        profileIDOfOngoingRaffle = 0;\n        prizeOfOngoingRaffle = 0;\n    }\n\n    /**\n     * Callback function used by VRF Coordinator\n     */\n    function fulfillRandomness(bytes32 requestId, uint256 randomness) internal override {\n        uint256 profileID = profileIDOfOngoingRaffle;\n        address winner = _getRandomFollowerAddress(profileID, randomness);\n        address donor = donorOfOngoingRaffle;\n        uint256 prize = prizeOfOngoingRaffle;\n        Giveaway memory giveaway = Giveaway(donor, profileID, prize, winner);\n        (bool sent, bytes memory data) = payable(address(winner)).call{value: prize}('');\n        profileIDOfOngoingRaffle = 0;\n        prizeOfOngoingRaffle = 0;\n        emit SendPrize(donor, winner, prize);\n        _giveaways[profileID].push(giveaway);\n    }\n\n    function getFollower(uint256 profileID) public view returns (address[] memory follower) {\n        address followNFTAddress = _lensHub.getFollowNFT(profileID);\n        // if a lens profile has no followers, the followNFT address is 0x0\n        if (followNFTAddress == address(0)) {\n            return new address[](0);\n        }\n        IERC721Enumerable followNFT = IERC721Enumerable(followNFTAddress);\n        uint256 totalSupply = followNFT.totalSupply();\n        address[] memory follower = new address[](totalSupply);\n        for (uint256 i = 0; i < totalSupply; i++) {\n            follower[i] = followNFT.ownerOf(i + 1);\n        }\n        return follower;\n    }\n\n    function getUniqueFollower(uint256 profileID) public view returns (address[] memory follower) {\n        IERC721Enumerable followNFT = IERC721Enumerable(_lensHub.getFollowNFT(profileID));\n        uint256 totalSupply = followNFT.totalSupply();\n        address[] memory follower = new address[](totalSupply);\n        uint256 duplicateCounter = 0;\n        for (uint256 i = 0; i < totalSupply; i++) {\n            bool isDuplicate = false;\n            address followerAddress = followNFT.ownerOf(i + 1);\n            for (uint256 j = 0; j < i; i++) {\n                if (follower[j] == followerAddress) {\n                    isDuplicate = true;\n                    duplicateCounter++;\n                    break;\n                }\n            }\n            if (!isDuplicate) {\n                follower[i - duplicateCounter] = followerAddress;\n            }\n        }\n        uint256 nUniqueFollower = totalSupply - duplicateCounter;\n        address[] memory uniqueFollower = new address[](nUniqueFollower);\n        for (uint256 i = 0; i < nUniqueFollower; i++) {\n            uniqueFollower[i] = follower[i];\n        }\n        return uniqueFollower;\n    }\n\n    function createGiveaway(uint256 profileID) public payable returns (bytes32 requestId) {\n        require(profileIDOfOngoingRaffle == 0, 'A raffle is currently ongoing. Please wait a bit.');\n        profileIDOfOngoingRaffle = profileID;\n        prizeOfOngoingRaffle = msg.value;\n        donorOfOngoingRaffle = msg.sender;\n        return requestRandomness(keyHash, fee);\n    }\n\n    function getProfileIdByHandle(string calldata handle) public view returns (uint256) {\n        return _lensHub.getProfileIdByHandle(handle);\n    }\n\n    function getGiveaways(uint256 profileID) public view returns (Giveaway[] memory) {\n        return _giveaways[profileID];\n    }\n\n    function _getRandomFollowerAddress(uint256 profileID, uint256 randomNumber)\n        private\n        view\n        returns (address)\n    {\n        address followNFTAddress = _lensHub.getFollowNFT(profileID);\n        if (followNFTAddress == address(0)) {\n            return address(0);\n        }\n        IERC721Enumerable followNFT = IERC721Enumerable(followNFTAddress);\n        uint256 totalSupply = followNFT.totalSupply();\n        uint256 winnerIndex = 1 + (randomNumber % totalSupply);\n        return followNFT.ownerOf(winnerIndex);\n    }\n\n    function getHandle(uint256 profileID) public view returns (string memory) {\n        return _lensHub.getHandle(profileID);\n    }\n}\n",
  "sourcePath": "/Users/udittakkar/projects/lenskit/truffle/contracts/PrizeDraw.sol",
  "compiler": {
    "name": "solc",
    "version": "0.8.17+commit.8df45f5f.Emscripten.clang"
  },
  "schemaVersion": "3.4.3",
  "updatedAt": "2022-12-31T14:36:32.228Z",
  "devdoc": {
    "kind": "dev",
    "methods": {},
    "version": 1
  },
  "userdoc": {
    "kind": "user",
    "methods": {},
    "version": 1
  }
}