{
  "contractName": "PrizeDrawModule",
  "abi": [
    {
      "inputs": [],
      "stateMutability": "nonpayable",
      "type": "constructor"
    },
    {
      "anonymous": false,
      "inputs": [
        {
          "indexed": true,
          "internalType": "address",
          "name": "_from",
          "type": "address"
        },
        {
          "indexed": true,
          "internalType": "address",
          "name": "_to",
          "type": "address"
        },
        {
          "indexed": false,
          "internalType": "uint256",
          "name": "_value",
          "type": "uint256"
        }
      ],
      "name": "SendPrize",
      "type": "event"
    },
    {
      "inputs": [
        {
          "internalType": "bytes32",
          "name": "requestId",
          "type": "bytes32"
        },
        {
          "internalType": "uint256",
          "name": "randomness",
          "type": "uint256"
        }
      ],
      "name": "rawFulfillRandomness",
      "outputs": [],
      "stateMutability": "nonpayable",
      "type": "function"
    },
    {
      "inputs": [
        {
          "internalType": "uint256",
          "name": "profileID",
          "type": "uint256"
        }
      ],
      "name": "getFollower",
      "outputs": [
        {
          "internalType": "address[]",
          "name": "follower",
          "type": "address[]"
        }
      ],
      "stateMutability": "view",
      "type": "function",
      "constant": true
    },
    {
      "inputs": [
        {
          "internalType": "uint256",
          "name": "profileID",
          "type": "uint256"
        }
      ],
      "name": "getUniqueFollower",
      "outputs": [
        {
          "internalType": "address[]",
          "name": "follower",
          "type": "address[]"
        }
      ],
      "stateMutability": "view",
      "type": "function",
      "constant": true
    },
    {
      "inputs": [
        {
          "internalType": "uint256",
          "name": "profileID",
          "type": "uint256"
        }
      ],
      "name": "createGiveaway",
      "outputs": [
        {
          "internalType": "bytes32",
          "name": "requestId",
          "type": "bytes32"
        }
      ],
      "stateMutability": "payable",
      "type": "function",
      "payable": true
    },
    {
      "inputs": [
        {
          "internalType": "string",
          "name": "handle",
          "type": "string"
        }
      ],
      "name": "getProfileIdByHandle",
      "outputs": [
        {
          "internalType": "uint256",
          "name": "",
          "type": "uint256"
        }
      ],
      "stateMutability": "view",
      "type": "function",
      "constant": true
    },
    {
      "inputs": [
        {
          "internalType": "uint256",
          "name": "profileID",
          "type": "uint256"
        }
      ],
      "name": "getGiveaways",
      "outputs": [
        {
          "components": [
            {
              "internalType": "address",
              "name": "donor",
              "type": "address"
            },
            {
              "internalType": "uint256",
              "name": "profileID",
              "type": "uint256"
            },
            {
              "internalType": "uint256",
              "name": "amount",
              "type": "uint256"
            },
            {
              "internalType": "address",
              "name": "winner",
              "type": "address"
            }
          ],
          "internalType": "struct PrizeDrawModule.Giveaway[]",
          "name": "",
          "type": "tuple[]"
        }
      ],
      "stateMutability": "view",
      "type": "function",
      "constant": true
    },
    {
      "inputs": [
        {
          "internalType": "uint256",
          "name": "profileID",
          "type": "uint256"
        }
      ],
      "name": "getHandle",
      "outputs": [
        {
          "internalType": "string",
          "name": "",
          "type": "string"
        }
      ],
      "stateMutability": "view",
      "type": "function",
      "constant": true
    }
  ],
  "bytecode": "0x60c060405234801561001057600080fd5b50738c7382f9d8f56b33781fe506e897a4f1e2d1725573326c977e6efc84e512bb9c30f76e30c160ed06fb8173ffffffffffffffffffffffffffffffffffffffff1660a08173ffffffffffffffffffffffffffffffffffffffff16815250508073ffffffffffffffffffffffffffffffffffffffff1660808173ffffffffffffffffffffffffffffffffffffffff16815250505050600073d7b3481de00995046c7850bce9a5196b7605c367905080600160006101000a81548173ffffffffffffffffffffffffffffffffffffffff021916908373ffffffffffffffffffffffffffffffffffffffff1602179055507f6e75b569a01ef56d18cab6a8e71e6600d6ce853834d4a5748b720d06f878b3a460001b600381905550655af3107a4000600481905550600060058190555060006006819055505060805160a051611ed0610173600039600081816109780152610f3b01526000610eff0152611ed06000f3fe6080604052600436106100705760003560e01c806394985ddd1161004e57806394985ddd1461012c578063bf24d36614610155578063ec7efa5214610185578063ec81d194146101c257610070565b806315a8510c1461007557806320fa728a146100b25780635542b276146100ef575b600080fd5b34801561008157600080fd5b5061009c600480360381019061009791906112fe565b6101ff565b6040516100a9919061141b565b60405180910390f35b3480156100be57600080fd5b506100d960048036038101906100d491906114a2565b6104eb565b6040516100e691906114fe565b60405180910390f35b3480156100fb57600080fd5b50610116600480360381019061011191906112fe565b610593565b604051610123919061141b565b60405180910390f35b34801561013857600080fd5b50610153600480360381019061014e919061154f565b610976565b005b61016f600480360381019061016a91906112fe565b610a12565b60405161017c919061159e565b60405180910390f35b34801561019157600080fd5b506101ac60048036038101906101a791906112fe565b610abc565b6040516101b991906116cc565b60405180910390f35b3480156101ce57600080fd5b506101e960048036038101906101e491906112fe565b610bee565b6040516101f6919061177e565b60405180910390f35b60606000600160009054906101000a900473ffffffffffffffffffffffffffffffffffffffff1673ffffffffffffffffffffffffffffffffffffffff1663a9ec6563846040518263ffffffff1660e01b815260040161025e91906114fe565b602060405180830381865afa15801561027b573d6000803e3d6000fd5b505050506040513d601f19601f8201168201806040525081019061029f91906117cc565b9050600073ffffffffffffffffffffffffffffffffffffffff168173ffffffffffffffffffffffffffffffffffffffff160361032757600067ffffffffffffffff8111156102f0576102ef6117f9565b5b60405190808252806020026020018201604052801561031e5781602001602082028036833780820191505090505b509150506104e6565b600081905060008173ffffffffffffffffffffffffffffffffffffffff166318160ddd6040518163ffffffff1660e01b8152600401602060405180830381865afa158015610379573d6000803e3d6000fd5b505050506040513d601f19601f8201168201806040525081019061039d919061183d565b905060008167ffffffffffffffff8111156103bb576103ba6117f9565b5b6040519080825280602002602001820160405280156103e95781602001602082028036833780820191505090505b50905060005b828110156104dd578373ffffffffffffffffffffffffffffffffffffffff16636352211e6001836104209190611899565b6040518263ffffffff1660e01b815260040161043c91906114fe565b602060405180830381865afa158015610459573d6000803e3d6000fd5b505050506040513d601f19601f8201168201806040525081019061047d91906117cc565b8282815181106104905761048f6118cd565b5b602002602001019073ffffffffffffffffffffffffffffffffffffffff16908173ffffffffffffffffffffffffffffffffffffffff168152505080806104d5906118fc565b9150506103ef565b50809450505050505b919050565b6000600160009054906101000a900473ffffffffffffffffffffffffffffffffffffffff1673ffffffffffffffffffffffffffffffffffffffff166320fa728a84846040518363ffffffff1660e01b815260040161054a929190611980565b602060405180830381865afa158015610567573d6000803e3d6000fd5b505050506040513d601f19601f8201168201806040525081019061058b919061183d565b905092915050565b60606000600160009054906101000a900473ffffffffffffffffffffffffffffffffffffffff1673ffffffffffffffffffffffffffffffffffffffff1663a9ec6563846040518263ffffffff1660e01b81526004016105f291906114fe565b602060405180830381865afa15801561060f573d6000803e3d6000fd5b505050506040513d601f19601f8201168201806040525081019061063391906117cc565b905060008173ffffffffffffffffffffffffffffffffffffffff166318160ddd6040518163ffffffff1660e01b8152600401602060405180830381865afa158015610682573d6000803e3d6000fd5b505050506040513d601f19601f820116820180604052508101906106a6919061183d565b905060008167ffffffffffffffff8111156106c4576106c36117f9565b5b6040519080825280602002602001820160405280156106f25781602001602082028036833780820191505090505b5090506000805b83811015610883576000808673ffffffffffffffffffffffffffffffffffffffff16636352211e60018561072d9190611899565b6040518263ffffffff1660e01b815260040161074991906114fe565b602060405180830381865afa158015610766573d6000803e3d6000fd5b505050506040513d601f19601f8201168201806040525081019061078a91906117cc565b905060005b8381101561080e578173ffffffffffffffffffffffffffffffffffffffff168682815181106107c1576107c06118cd565b5b602002602001015173ffffffffffffffffffffffffffffffffffffffff16036107fb576001925084806107f3906118fc565b95505061080e565b8380610806906118fc565b94505061078f565b508161086e578085858561082291906119a4565b81518110610833576108326118cd565b5b602002602001019073ffffffffffffffffffffffffffffffffffffffff16908173ffffffffffffffffffffffffffffffffffffffff16815250505b5050808061087b906118fc565b9150506106f9565b506000818461089291906119a4565b905060008167ffffffffffffffff8111156108b0576108af6117f9565b5b6040519080825280602002602001820160405280156108de5781602001602082028036833780820191505090505b50905060005b82811015610967578481815181106108ff576108fe6118cd565b5b602002602001015182828151811061091a576109196118cd565b5b602002602001019073ffffffffffffffffffffffffffffffffffffffff16908173ffffffffffffffffffffffffffffffffffffffff1681525050808061095f906118fc565b9150506108e4565b50809650505050505050919050565b7f000000000000000000000000000000000000000000000000000000000000000073ffffffffffffffffffffffffffffffffffffffff163373ffffffffffffffffffffffffffffffffffffffff1614610a04576040517f08c379a00000000000000000000000000000000000000000000000000000000081526004016109fb90611a24565b60405180910390fd5b610a0e8282610c98565b5050565b60008060055414610a58576040517f08c379a0000000000000000000000000000000000000000000000000000000008152600401610a4f90611ab6565b60405180910390fd5b816005819055503460068190555033600760006101000a81548173ffffffffffffffffffffffffffffffffffffffff021916908373ffffffffffffffffffffffffffffffffffffffff160217905550610ab5600354600454610efb565b9050919050565b606060026000838152602001908152602001600020805480602002602001604051908101604052809291908181526020016000905b82821015610be357838290600052602060002090600402016040518060800160405290816000820160009054906101000a900473ffffffffffffffffffffffffffffffffffffffff1673ffffffffffffffffffffffffffffffffffffffff1673ffffffffffffffffffffffffffffffffffffffff16815260200160018201548152602001600282015481526020016003820160009054906101000a900473ffffffffffffffffffffffffffffffffffffffff1673ffffffffffffffffffffffffffffffffffffffff1673ffffffffffffffffffffffffffffffffffffffff168152505081526020019060010190610af1565b505050509050919050565b6060600160009054906101000a900473ffffffffffffffffffffffffffffffffffffffff1673ffffffffffffffffffffffffffffffffffffffff1663ec81d194836040518263ffffffff1660e01b8152600401610c4b91906114fe565b600060405180830381865afa158015610c68573d6000803e3d6000fd5b505050506040513d6000823e3d601f19601f82011682018060405250810190610c919190611bc8565b9050919050565b600060055490506000610cab828461104b565b90506000600760009054906101000a900473ffffffffffffffffffffffffffffffffffffffff16905060006006549050600060405180608001604052808473ffffffffffffffffffffffffffffffffffffffff1681526020018681526020018381526020018573ffffffffffffffffffffffffffffffffffffffff1681525090506000808573ffffffffffffffffffffffffffffffffffffffff1684604051610d5390611c42565b60006040518083038185875af1925050503d8060008114610d90576040519150601f19603f3d011682016040523d82523d6000602084013e610d95565b606091505b5091509150600060058190555060006006819055508573ffffffffffffffffffffffffffffffffffffffff168573ffffffffffffffffffffffffffffffffffffffff167f97bda46e04e64f71ccb885f6f7505123afa924649d2c74da63444c39589ad3b586604051610e0791906114fe565b60405180910390a36002600088815260200190815260200160002083908060018154018082558091505060019003906000526020600020906004020160009091909190915060008201518160000160006101000a81548173ffffffffffffffffffffffffffffffffffffffff021916908373ffffffffffffffffffffffffffffffffffffffff160217905550602082015181600101556040820151816002015560608201518160030160006101000a81548173ffffffffffffffffffffffffffffffffffffffff021916908373ffffffffffffffffffffffffffffffffffffffff1602179055505050505050505050505050565b60007f000000000000000000000000000000000000000000000000000000000000000073ffffffffffffffffffffffffffffffffffffffff16634000aea07f000000000000000000000000000000000000000000000000000000000000000084866000604051602001610f6f929190611c57565b6040516020818303038152906040526040518463ffffffff1660e01b8152600401610f9c93929190611ce4565b6020604051808303816000875af1158015610fbb573d6000803e3d6000fd5b505050506040513d601f19601f82011682018060405250810190610fdf9190611d5a565b5060006110018460003060008089815260200190815260200160002054611245565b90506001600080868152602001908152602001600020546110229190611899565b600080868152602001908152602001600020819055506110428482611281565b91505092915050565b600080600160009054906101000a900473ffffffffffffffffffffffffffffffffffffffff1673ffffffffffffffffffffffffffffffffffffffff1663a9ec6563856040518263ffffffff1660e01b81526004016110a991906114fe565b602060405180830381865afa1580156110c6573d6000803e3d6000fd5b505050506040513d601f19601f820116820180604052508101906110ea91906117cc565b9050600073ffffffffffffffffffffffffffffffffffffffff168173ffffffffffffffffffffffffffffffffffffffff160361112a57600091505061123f565b600081905060008173ffffffffffffffffffffffffffffffffffffffff166318160ddd6040518163ffffffff1660e01b8152600401602060405180830381865afa15801561117c573d6000803e3d6000fd5b505050506040513d601f19601f820116820180604052508101906111a0919061183d565b9050600081866111b09190611db6565b60016111bc9190611899565b90508273ffffffffffffffffffffffffffffffffffffffff16636352211e826040518263ffffffff1660e01b81526004016111f791906114fe565b602060405180830381865afa158015611214573d6000803e3d6000fd5b505050506040513d601f19601f8201168201806040525081019061123891906117cc565b9450505050505b92915050565b60008484848460405160200161125e9493929190611de7565b6040516020818303038152906040528051906020012060001c9050949350505050565b60008282604051602001611296929190611e6e565b60405160208183030381529060405280519060200120905092915050565b6000604051905090565b600080fd5b600080fd5b6000819050919050565b6112db816112c8565b81146112e657600080fd5b50565b6000813590506112f8816112d2565b92915050565b600060208284031215611314576113136112be565b5b6000611322848285016112e9565b91505092915050565b600081519050919050565b600082825260208201905092915050565b6000819050602082019050919050565b600073ffffffffffffffffffffffffffffffffffffffff82169050919050565b600061138282611357565b9050919050565b61139281611377565b82525050565b60006113a48383611389565b60208301905092915050565b6000602082019050919050565b60006113c88261132b565b6113d28185611336565b93506113dd83611347565b8060005b8381101561140e5781516113f58882611398565b9750611400836113b0565b9250506001810190506113e1565b5085935050505092915050565b6000602082019050818103600083015261143581846113bd565b905092915050565b600080fd5b600080fd5b600080fd5b60008083601f8401126114625761146161143d565b5b8235905067ffffffffffffffff81111561147f5761147e611442565b5b60208301915083600182028301111561149b5761149a611447565b5b9250929050565b600080602083850312156114b9576114b86112be565b5b600083013567ffffffffffffffff8111156114d7576114d66112c3565b5b6114e38582860161144c565b92509250509250929050565b6114f8816112c8565b82525050565b600060208201905061151360008301846114ef565b92915050565b6000819050919050565b61152c81611519565b811461153757600080fd5b50565b60008135905061154981611523565b92915050565b60008060408385031215611566576115656112be565b5b60006115748582860161153a565b9250506020611585858286016112e9565b9150509250929050565b61159881611519565b82525050565b60006020820190506115b3600083018461158f565b92915050565b600081519050919050565b600082825260208201905092915050565b6000819050602082019050919050565b6115ee816112c8565b82525050565b60808201600082015161160a6000850182611389565b50602082015161161d60208501826115e5565b50604082015161163060408501826115e5565b5060608201516116436060850182611389565b50505050565b600061165583836115f4565b60808301905092915050565b6000602082019050919050565b6000611679826115b9565b61168381856115c4565b935061168e836115d5565b8060005b838110156116bf5781516116a68882611649565b97506116b183611661565b925050600181019050611692565b5085935050505092915050565b600060208201905081810360008301526116e6818461166e565b905092915050565b600081519050919050565b600082825260208201905092915050565b60005b8381101561172857808201518184015260208101905061170d565b60008484015250505050565b6000601f19601f8301169050919050565b6000611750826116ee565b61175a81856116f9565b935061176a81856020860161170a565b61177381611734565b840191505092915050565b600060208201905081810360008301526117988184611745565b905092915050565b6117a981611377565b81146117b457600080fd5b50565b6000815190506117c6816117a0565b92915050565b6000602082840312156117e2576117e16112be565b5b60006117f0848285016117b7565b91505092915050565b7f4e487b7100000000000000000000000000000000000000000000000000000000600052604160045260246000fd5b600081519050611837816112d2565b92915050565b600060208284031215611853576118526112be565b5b600061186184828501611828565b91505092915050565b7f4e487b7100000000000000000000000000000000000000000000000000000000600052601160045260246000fd5b60006118a4826112c8565b91506118af836112c8565b92508282019050808211156118c7576118c661186a565b5b92915050565b7f4e487b7100000000000000000000000000000000000000000000000000000000600052603260045260246000fd5b6000611907826112c8565b91507fffffffffffffffffffffffffffffffffffffffffffffffffffffffffffffffff82036119395761193861186a565b5b600182019050919050565b82818337600083830152505050565b600061195f83856116f9565b935061196c838584611944565b61197583611734565b840190509392505050565b6000602082019050818103600083015261199b818486611953565b90509392505050565b60006119af826112c8565b91506119ba836112c8565b92508282039050818111156119d2576119d161186a565b5b92915050565b7f4f6e6c7920565246436f6f7264696e61746f722063616e2066756c66696c6c00600082015250565b6000611a0e601f836116f9565b9150611a19826119d8565b602082019050919050565b60006020820190508181036000830152611a3d81611a01565b9050919050565b7f4120726166666c652069732063757272656e746c79206f6e676f696e672e205060008201527f6c6561736520776169742061206269742e000000000000000000000000000000602082015250565b6000611aa06031836116f9565b9150611aab82611a44565b604082019050919050565b60006020820190508181036000830152611acf81611a93565b9050919050565b600080fd5b611ae482611734565b810181811067ffffffffffffffff82111715611b0357611b026117f9565b5b80604052505050565b6000611b166112b4565b9050611b228282611adb565b919050565b600067ffffffffffffffff821115611b4257611b416117f9565b5b611b4b82611734565b9050602081019050919050565b6000611b6b611b6684611b27565b611b0c565b905082815260208101848484011115611b8757611b86611ad6565b5b611b9284828561170a565b509392505050565b600082601f830112611baf57611bae61143d565b5b8151611bbf848260208601611b58565b91505092915050565b600060208284031215611bde57611bdd6112be565b5b600082015167ffffffffffffffff811115611bfc57611bfb6112c3565b5b611c0884828501611b9a565b91505092915050565b600081905092915050565b50565b6000611c2c600083611c11565b9150611c3782611c1c565b600082019050919050565b6000611c4d82611c1f565b9150819050919050565b6000604082019050611c6c600083018561158f565b611c7960208301846114ef565b9392505050565b611c8981611377565b82525050565b600081519050919050565b600082825260208201905092915050565b6000611cb682611c8f565b611cc08185611c9a565b9350611cd081856020860161170a565b611cd981611734565b840191505092915050565b6000606082019050611cf96000830186611c80565b611d0660208301856114ef565b8181036040830152611d188184611cab565b9050949350505050565b60008115159050919050565b611d3781611d22565b8114611d4257600080fd5b50565b600081519050611d5481611d2e565b92915050565b600060208284031215611d7057611d6f6112be565b5b6000611d7e84828501611d45565b91505092915050565b7f4e487b7100000000000000000000000000000000000000000000000000000000600052601260045260246000fd5b6000611dc1826112c8565b9150611dcc836112c8565b925082611ddc57611ddb611d87565b5b828206905092915050565b6000608082019050611dfc600083018761158f565b611e0960208301866114ef565b611e166040830185611c80565b611e2360608301846114ef565b95945050505050565b6000819050919050565b611e47611e4282611519565b611e2c565b82525050565b6000819050919050565b611e68611e63826112c8565b611e4d565b82525050565b6000611e7a8285611e36565b602082019150611e8a8284611e57565b602082019150819050939250505056fea2646970667358221220ce6adec236217b5f8fa488865ecf8415d32eec55921fbd7d2827155e687e7e8f64736f6c63430008110033",
  "immutableReferences": {
    "73": [
      {
        "length": 32,
        "start": 3839
      }
    ],
    "75": [
      {
        "length": 32,
        "start": 2424
      },
      {
        "length": 32,
        "start": 3899
      }
    ]
  },
  "source": "// SPDX-License-Identifier: MIT\npragma solidity ^0.8.0;\npragma experimental ABIEncoderV2;\n\n//import \"@chainlink/contracts/src/v0.6/ChainlinkClient.sol\";\nimport 'hardhat/console.sol';\nimport '@openzeppelin/contracts/token/ERC721/extensions/IERC721Enumerable.sol';\nimport '@chainlink/contracts/src/v0.8/VRFConsumerBase.sol';\n\ncontract LensHub {\n    function getFollowNFT(uint256 profileId) external view returns (address) {\n        return 0x0000000000000000000000000000000000000000;\n    }\n\n    function defaultProfile(address wallet) external view returns (uint256) {\n        return 0;\n    }\n\n    function getProfileIdByHandle(string calldata handle) external view returns (uint256) {\n        return 0;\n    }\n\n    function getHandle(uint256 profileId) external view returns (string memory) {\n        return '';\n    }\n\n    function follow(uint256[] calldata profileIds, bytes[] calldata datas) external {}\n}\n\ncontract PrizeDrawModule is VRFConsumerBase {\n    event SendPrize(address indexed _from, address indexed _to, uint256 _value);\n\n    LensHub _lensHub;\n    mapping(uint256 => Giveaway[]) _giveaways;\n\n    bytes32 internal keyHash;\n    uint256 internal fee;\n\n    uint256 internal profileIDOfOngoingRaffle;\n    uint256 internal prizeOfOngoingRaffle;\n    address internal donorOfOngoingRaffle;\n\n    struct Giveaway {\n        address donor;\n        uint256 profileID;\n        uint256 amount;\n        address winner;\n    }\n\n    constructor()\n        VRFConsumerBase(\n            0x8C7382F9D8f56b33781fE506E897a4F1e2d17255, // VRF Coordinator\n            0x326C977E6efc84E512bB9C30f76E30c160eD06FB // LINK Token\n        )\n    {\n        address watch_addr = 0xd7B3481De00995046C7850bCe9a5196B7605c367;\n        // lens hub proxy on mumbai testnet\n        _lensHub = LensHub(watch_addr);\n        keyHash = 0x6e75b569a01ef56d18cab6a8e71e6600d6ce853834d4a5748b720d06f878b3a4;\n        fee = 0.0001 * 10**18;\n        // 0.0001 LINK\n        profileIDOfOngoingRaffle = 0;\n        prizeOfOngoingRaffle = 0;\n    }\n\n    /**\n     * Callback function used by VRF Coordinator\n     */\n    function fulfillRandomness(bytes32 requestId, uint256 randomness) internal override {\n        uint256 profileID = profileIDOfOngoingRaffle;\n        address winner = _getRandomFollowerAddress(profileID, randomness);\n        address donor = donorOfOngoingRaffle;\n        uint256 prize = prizeOfOngoingRaffle;\n        Giveaway memory giveaway = Giveaway(donor, profileID, prize, winner);\n        (bool sent, bytes memory data) = payable(address(winner)).call{value: prize}('');\n        profileIDOfOngoingRaffle = 0;\n        prizeOfOngoingRaffle = 0;\n        emit SendPrize(donor, winner, prize);\n        _giveaways[profileID].push(giveaway);\n    }\n\n    function getFollower(uint256 profileID) public view returns (address[] memory follower) {\n        address followNFTAddress = _lensHub.getFollowNFT(profileID);\n        // if a lens profile has no followers, the followNFT address is 0x0\n        if (followNFTAddress == address(0)) {\n            return new address[](0);\n        }\n        IERC721Enumerable followNFT = IERC721Enumerable(followNFTAddress);\n        uint256 totalSupply = followNFT.totalSupply();\n        address[] memory follower = new address[](totalSupply);\n        for (uint256 i = 0; i < totalSupply; i++) {\n            follower[i] = followNFT.ownerOf(i + 1);\n        }\n        return follower;\n    }\n\n    function getUniqueFollower(uint256 profileID) public view returns (address[] memory follower) {\n        IERC721Enumerable followNFT = IERC721Enumerable(_lensHub.getFollowNFT(profileID));\n        uint256 totalSupply = followNFT.totalSupply();\n        address[] memory follower = new address[](totalSupply);\n        uint256 duplicateCounter = 0;\n        for (uint256 i = 0; i < totalSupply; i++) {\n            bool isDuplicate = false;\n            address followerAddress = followNFT.ownerOf(i + 1);\n            for (uint256 j = 0; j < i; i++) {\n                if (follower[j] == followerAddress) {\n                    isDuplicate = true;\n                    duplicateCounter++;\n                    break;\n                }\n            }\n            if (!isDuplicate) {\n                follower[i - duplicateCounter] = followerAddress;\n            }\n        }\n        uint256 nUniqueFollower = totalSupply - duplicateCounter;\n        address[] memory uniqueFollower = new address[](nUniqueFollower);\n        for (uint256 i = 0; i < nUniqueFollower; i++) {\n            uniqueFollower[i] = follower[i];\n        }\n        return uniqueFollower;\n    }\n\n    function createGiveaway(uint256 profileID) public payable returns (bytes32 requestId) {\n        require(profileIDOfOngoingRaffle == 0, 'A raffle is currently ongoing. Please wait a bit.');\n        profileIDOfOngoingRaffle = profileID;\n        prizeOfOngoingRaffle = msg.value;\n        donorOfOngoingRaffle = msg.sender;\n        return requestRandomness(keyHash, fee);\n    }\n\n    function getProfileIdByHandle(string calldata handle) public view returns (uint256) {\n        return _lensHub.getProfileIdByHandle(handle);\n    }\n\n    function getGiveaways(uint256 profileID) public view returns (Giveaway[] memory) {\n        return _giveaways[profileID];\n    }\n\n    function _getRandomFollowerAddress(uint256 profileID, uint256 randomNumber)\n        private\n        view\n        returns (address)\n    {\n        address followNFTAddress = _lensHub.getFollowNFT(profileID);\n        if (followNFTAddress == address(0)) {\n            return address(0);\n        }\n        IERC721Enumerable followNFT = IERC721Enumerable(followNFTAddress);\n        uint256 totalSupply = followNFT.totalSupply();\n        uint256 winnerIndex = 1 + (randomNumber % totalSupply);\n        return followNFT.ownerOf(winnerIndex);\n    }\n\n    function getHandle(uint256 profileID) public view returns (string memory) {\n        return _lensHub.getHandle(profileID);\n    }\n}\n",
  "sourcePath": "/Users/udittakkar/projects/lenskit/truffle/contracts/PrizeDraw.sol",
  "compiler": {
    "name": "solc",
    "version": "0.8.17+commit.8df45f5f.Emscripten.clang"
  },
  "schemaVersion": "3.4.3",
  "updatedAt": "2022-12-31T14:42:59.864Z",
  "networkType": "ethereum",
  "devdoc": {
    "kind": "dev",
    "methods": {},
    "version": 1
  },
  "userdoc": {
    "kind": "user",
    "methods": {},
    "version": 1
  }
}